:020000040000FA
:0400000080311F2804
:100008007E1480312100101E1D282000101E1D287E
:100018002700991E1D2899127C08A03E860087019A
:10002800003020008E1A013081000130F000700885
:10003800FC077E10090080312128FC01A0308400D3
:100048000030850029308F31AF277E1020008431A1
:10005800E12C200025088400260885000008A80057
:100068002808DC000130A5070030A63D5C0803190C
:10007800080025305C06031946285C088631DC2612
:1000880080312D282000D701D801250884002608B2
:1000980085000008A8002808DC000130A50700300A
:1000A800A63D30305C06031D5B28013060282D30EA
:1000B8005C06031D6F280230D7000030D8002508E1
:1000C8008400260885000008A8002808DC00013004
:1000D800A5070030A63DD301D40199285C08A800E3
:1000E800A9015408F2005308F1000A30F300003067
:1000F800F400873194278031200028087107AA006E
:100108002908723DAB002A08D03ED300FF302B3DB2
:10011800D40025088400260885000008A8002808BF
:10012800DC000130A5070030A63D30305C02031C1E
:10013800A1283A305C02031C72286C305C06031953
:10014800A9284C305C06031DB628571525088400DD
:10015800260885000008A8002808DC000130A5074B
:100168000030A63D5C08031908005C08A8002808B0
:10017800DB0061305B02031C2C292030DB022C29B8
:10018800270886008701403F84008501810A00080E
:10019800A8002808C800D501D60155084807A800B6
:1001A80028088600870101080319E3280130D507CC
:1001B8000030D63DD12820308631DC268031200021
:1001C800D718F5285608A9005508A800D50A031914
:1001D800D60A54082902031DF32853082802031CD1
:1001E800DF2848088731C427803120005608A90035
:1001F8005508A800D50A0319D60A54082902031D70
:1002080007295308280203182D2820308631DC26B8
:100218008031F928270886008701010884008501B4
:100228000230810700088631DC2680312D28023013
:1002380020002329083023290A3023291030C90037
:100248000030CA004C295C088631DC2680312D2814
:1002580020005B08A800A9012908003A03193529DC
:1002680027292808423A03191B29013A03190E299C
:10027800073A031920290B3A03191E291C3A0319B6
:10028800C428063A031920290D3A031922292729D7
:100298002000571D5F292708860087010108840070
:1002A800850104308107003FCF00013FD000023FA5
:1002B800D100033F8A2944305B06031976292708B1
:1002C8008600870101088400850102308107003F0C
:1002D800A800013FA9002808CF002908D000D101B3
:1002E800D2018B292708860087010108840085012F
:1002F80002308107003FA800013FA9002808CF006D
:100308002908D000890D893B8909D100D2004430E1
:100318005B060319D21F9C29CF09D009D109D2093C
:10032800CF0A0319D00A0319D10A0319D20A57169A
:10033800D901DA015208CE005108CD005008CC008E
:100348004F08CB004908F1004A08F200F301F40114
:100358004E08F8004D08F7004C08F6004B08F50069
:1003680086316B26803171082000A8002808DB0040
:100378004908F1004A08F200F301F4014E08F800B8
:100388004D08F7004C08F6004B08F5008631182692
:10039800803174082000CE007308CD007208CC00AC
:1003A8007108CB000A305B02031CE82978305C0630
:1003B8000319E0290730E1292730C4000030C500BF
:1003C8004408A8002808DB075B08303EA800590845
:1003D8002C3E86008701280881000130D9070030AB
:1003E800DA3D4E084D044C044B040319022A003030
:1003F8005A02183003195902031CA629571E102A3D
:100408002D30A80059082C3E860087012808810055
:100418000130D9070030DA3D5A08D6005908D5000E
:100428005718182A2030192A3030C6000030C70063
:100438004608A8002808DB00252A5B088631DC2648
:1004480080312000D718372A5608A9005508A80077
:10045800D50A0319D60A54082902031D352A530858
:100468002802031C212A0130D9020030DA3B59083E
:100478002C3E8600870101088631DC268031200069
:1004880059085A0403194D2A372A20308631DC26A8
:10049800803120005608A9005508A800D50A03197C
:1004A800D60A54082902031D5B2A53082802031898
:1004B8002D28492AF4018F31C427823120001312D4
:1004C8008F31A2278231FC012100101222008E16E2
:1004D80021008E1222008E12000000000000000091
:1004E8000000000000000000000000000000000004
:1004F80000000000000000000000000000000000F4
:100508000000000022008E1600000000000000001D
:100518000000000022008E12000000000000000011
:1005280000000000000000000000000000000000C3
:1005380000000000000000000000000000000000B3
:100548000000000022008E160000000000000000DD
:100558000000000022008E120000000000000000D1
:100568000000000000000000000000000000000083
:100578000000000000000000000000000000000073
:100588000000000022008E1600000000000000009D
:100598000000000022008E12000000000000000091
:1005A8000000000000000000000000000000000043
:1005B8000000000000000000000000000000000033
:1005C8000000000022008E1600000000000000005D
:1005D8000000000022008E12000000000000000051
:1005E8000000000000000000000000000000000003
:1005F80000000000000000000000000000000000F3
:100608000000000022008E1600000000000000001C
:100618000000000022008E12000000000000000010
:1006280000000000000000000000000000000000C2
:1006380000000000000000000000000000000000B2
:100648000000000022008E160000000000000000DC
:100658000000000022008E120000000000000000D0
:100668000000000000000000000000000000000082
:100678000000000000000000000000000000000072
:100688000000000022008E1600000000000000009C
:100698000000000022008E12000000000000000090
:1006A8000000000022008E1600000000000000007C
:1006B8000000000000000000000000000000000032
:1006C8000000000000000000000000000000000022
:1006D8000000000022008E12000000000000000050
:1006E8000000000022008E1621008E1627009912A5
:1006F8002100101621307C02031C852B21001012CA
:10070800912B8731FC278231003A03197E2B210077
:10071800101221307C02031C932B7C089B2B7C0835
:10072800031D992BF401F4039E2B7C03FF3AF3007D
:100738007308F4008F31A22774080800F4018F3180
:10074800C4278331200013128F31A2278331FC0183
:100758002100101222008E1621008E1222008E1205
:100768000000000000000000000000000000000081
:100778000000000000000000000000000000000071
:1007880000000000000000000000000022008E169B
:1007980000000000000000000000000022008E128F
:1007A8000000000000000000000000000000000041
:1007B8000000000000000000000000000000000031
:1007C80000000000000000000000000022008E165B
:1007D80000000000000000000000000022008E124F
:1007E8000000000000000000000000000000000001
:1007F80000000000000000000000000000000000F1
:1008080000000000000000000000000022008E161A
:1008180000000000000000000000000022008E120E
:1008280000000000000000000000000000000000C0
:1008380000000000000000000000000000000000B0
:1008480000000000000000000000000022008E16DA
:1008580000000000000000000000000022008E12CE
:100868000000000000000000000000000000000080
:100878000000000000000000000000000000000070
:1008880000000000000000000000000022008E169A
:1008980000000000000000000000000022008E128E
:1008A8000000000000000000000000000000000040
:1008B8000000000000000000000000000000000030
:1008C80000000000000000000000000022008E165A
:1008D80000000000000000000000000022008E124E
:1008E8000000000000000000000000000000000000
:1008F80000000000000000000000000000000000F0
:1009080000000000000000000000000022008E1619
:1009180000000000000000000000000022008E120D
:1009280000000000000000000000000000000000BF
:1009380000000000000000000000000000000000AF
:1009480000000000000000000000000022008E16D9
:1009580000000000000000000000000022008E12CD
:1009680000000000000000000000000022008E16B9
:1009780021008E16270099122100101619307C02CA
:10098800031CCA2C210010127C08DA2C8731FC27A2
:100998008331003A0319C22C210010127C08031D70
:1009A800D82CF401F403DD2C7C03FF3AF300730820
:1009B800F4008F31A227740808008731EA278431B0
:1009C8008B170B17B5302100C9000F30CA00402D16
:1009D80068302100CF00E430890BF02CCF0BF02CCD
:1009E800000082315E2284312100CF004F08D100FF
:1009F8005108803A5F3E031C0C2D8531C425843193
:100A0800210047080319362D8631AD268431362D4D
:100A18002100510A031D1D2D05302100D0000F3083
:100A2800CF00F130890B162DCF0B162DD00B162DBC
:100A3800402DD11F292D68302100CF00E430890BCB
:100A4800232DCF0B232D0000362D05302100D0009B
:100A58000F30CF00F130890B2F2DCF0B2F2DD00B5E
:100A68002F2D402D68302100CF00E430890B3A2D1E
:100A7800CF0B3A2D0000F52C8331A22384312100BD
:100A8800CF004F08D1005108803A673E0318EC2C7C
:100A980015302100D0004B30CF00BE30890B522DCD
:100AA800CF0B522DD00B522D0000402D2100C40138
:100AB800C301C201C101F301083073020318080021
:100AC8007308A03E86008701010803197A2D0130BA
:100AD800F1007303FF3A073E890A732DF135890B3C
:100AE800722D7108F20072082100C1047308083ED3
:100AF800A03E8600870101080319912D0130F100FD
:100B08007303FF3A073E890A8A2DF135890B892D2F
:100B18007108F20072082100C2047308103EA03E5A
:100B28008600870101080319A82D0130F10073031D
:100B3800FF3A073E890AA12DF135890BA02D7108CE
:100B4800F20072082100C3047308183EA03E860014
:100B5800870101080319BF2D0130F1007303FF3A23
:100B6800073E890AB82DF135890BB72D7108F200B7
:100B780072082100C4040130F1007108F307602DE8
:100B880021002008031DCD2D21080319220803196F
:100B9800D02D22000C10D22D22000C142100230885
:100BA8000319D92D22008C10DB2D22008C14210072
:100BB800240803192C080319E42D22000E10E62D31
:100BC80022000E142100250803192D080319EF2D02
:100BD80022000E11F12D22000E15210026080319FE
:100BE8002E080319FA2D22008E10FC2D22008E14D7
:100BF8002100270803192F080319052E22000C11BC
:100C0800072E22000C1521002A080319102E2E0881
:100C18000319102EC701C70A2B08031908002F084B
:100C280003190800C701080000302000A3000030A5
:100C3800A2000030A1000030A00074087304720400
:100C480071040319622EA401A40AF41B372E013083
:100C5800F135F20DF30DF40D890B2C2E0130F9004E
:100C68007908A407292E0130A035A10DA20DA30DE6
:100C7800890B382E74087802031D4C2E73087702EE
:100C8800031D4C2E72087602031D4C2E7108750246
:100C9800031C572E7108F5027208F63B7308F73BE0
:100CA8007408F83B20140130F436F30CF20CF10C04
:100CB800890B582E0130A402031D372E2308F40097
:100CC8002208F3002108F2002008F1000800740847
:100CD8007304720471040319A42EFA01FA0AF41BAE
:100CE800812E0130F135F20DF30DF40D890B762EBE
:100CF8000130F9007908FA07732E74087802031D89
:100D08008F2E73087702031D8F2E72087602031D3B
:100D18008F2E71087502031C992E7108F50272084E
:100D2800F63B7308F73B7408F83B0130F436F30CD4
:100D3800F20CF10C890B9A2E0130FA02031D812E58
:100D48007808F4007708F3007608F2007508F100D7
:100D5800080085315A258631AF302000DD00873004
:100D6800DE00210041082000E800E9016808DF00F2
:100D78006908E000210042082000EA00EB016A0847
:100D8800E1006B08E200210043082000EC00ED01BF
:100D98006C08E3006D08E400210044082000EE0020
:100DA800EF016E08E5006F08E6008F31F0270800B4
:100DB800F3000A307306031DEB2E0D30F2007208A3
:100DC800F10021004A088A0049080A0086312100FA
:100DD80046080319FB2E7308F200460886008701AF
:100DE800720881000130F2007208C607080049083D
:100DF8004A04031908007308F2007208F1004A084F
:100E08008A0049080A008731080022008C018E01F7
:100E180021008C0138308E00083023008E008C01B0
:100E280024008C0120308E00073025008C0007300C
:100E38008E00373026008C003F308E002700991234
:100E4800981697120030F1000030F2008F31A92770
:100E58002100101603303C00A40014303D0094001B
:100E680008004E3436343434203443346F346E340E
:100E7800743472346F346C346C34653472342034A6
:100E880066346F34723420344D34613463346834DA
:100E980069344B3461346E346934613420345434E9
:100EA80079347034653420344D340A340034533482
:100EB80065347234693461346C3420346F34753479
:100EC800743420344F34663466343A34203452341F
:100ED80020342B34203443342D345234693467346D
:100EE800683474340A3400345334653472346934E1
:100EF80061346C3420346F347534743420344F3496
:100F08004E343A34203420344C3420342B342034BA
:100F180043342D344C346534663474340A34003424
:100F2800F501F601711C9C2F7308F5077408F63D4E
:100F38000130F335F40D890B9D2F0130F236F10C99
:100F4800890BA22F71087204031D962F7608F200F0
:100F58007508F100080025343034323478342C34E4
:100F680025343034323478342C3425343034323427
:100F780078342C3425343034323478340A3400341C
:100F8800F50075088600870101080319080075082F
:100F98008600870101088631DC2687310130F4009C
:100FA8007408F507C52F28009401FF3092004C30D3
:100FB800910012082100CC00280011082100CB0064
:100FC8002000131230302800930008008F31BC270E
:100FD80087318731092787318F31CC2787318F3186
:100FE800A52787318731D72787318F31D527080043
:080FF8002000130E013908006E
:101F440028001314080016302100970008007208B6
:101F54002100CE007108CD00080064008001013129
:101F6400890BB02F00342000111EB52F71082300F7
:101F74009A000800320091019201930194019501A5
:101F84009601080021004C08F2004B08F1008F3143
:101F9400E12708006030320099009B019D01073061
:101FA4009F009E010800083023009F0090309D0090
:101FB40024309E0040309B0003309C000800280021
:101FC400131DEB2F13107208920071089100131463
:101FD4000800720892007108910008005F30FB004D
:101FE4007B082000E7005E08A6005D08A5006730B6
:101FF400FB007B08A70080312D200800003400344A
:10200400D5340F3400340034003400340034003448
:10201400B5340F342534303438346C3458342034E7
:10202400003420342534303438344C3458340034BB
:1020340020342534303432345834003420342534B8
:08204400303434345834003408
:020000040001F9
:08000E00ECFFF2FFFFDFFFFF32
:00000001FF
